{
  "_format": "hh-sol-artifact-1",
  "contractName": "Voting",
  "sourceName": "contracts/Voting.sol",
  "abi": [
    {
      "inputs": [
        {
          "internalType": "string[]",
          "name": "_candidateNames",
          "type": "string[]"
        },
        {
          "internalType": "uint256",
          "name": "_durationInMinutes",
          "type": "uint256"
        },
        {
          "internalType": "uint256",
          "name": "_customVotingStart",
          "type": "uint256"
        }
      ],
      "stateMutability": "nonpayable",
      "type": "constructor"
    },
    {
      "inputs": [
        {
          "internalType": "string",
          "name": "_name",
          "type": "string"
        }
      ],
      "name": "addCandidate",
      "outputs": [],
      "stateMutability": "nonpayable",
      "type": "function"
    },
    {
      "inputs": [
        {
          "internalType": "uint256",
          "name": "",
          "type": "uint256"
        }
      ],
      "name": "candidates",
      "outputs": [
        {
          "internalType": "string",
          "name": "name",
          "type": "string"
        },
        {
          "internalType": "uint256",
          "name": "voteCount",
          "type": "uint256"
        }
      ],
      "stateMutability": "view",
      "type": "function"
    },
    {
      "inputs": [],
      "name": "getAllVotesOfCandiates",
      "outputs": [
        {
          "components": [
            {
              "internalType": "string",
              "name": "name",
              "type": "string"
            },
            {
              "internalType": "uint256",
              "name": "voteCount",
              "type": "uint256"
            }
          ],
          "internalType": "struct Voting.Candidate[]",
          "name": "",
          "type": "tuple[]"
        }
      ],
      "stateMutability": "view",
      "type": "function"
    },
    {
      "inputs": [],
      "name": "getRemainingTime",
      "outputs": [
        {
          "internalType": "int256",
          "name": "",
          "type": "int256"
        }
      ],
      "stateMutability": "view",
      "type": "function"
    },
    {
      "inputs": [],
      "name": "getVotingStatus",
      "outputs": [
        {
          "internalType": "bool",
          "name": "",
          "type": "bool"
        }
      ],
      "stateMutability": "view",
      "type": "function"
    },
    {
      "inputs": [
        {
          "internalType": "uint256",
          "name": "_candidateIndex",
          "type": "uint256"
        }
      ],
      "name": "vote",
      "outputs": [],
      "stateMutability": "nonpayable",
      "type": "function"
    },
    {
      "inputs": [
        {
          "internalType": "address",
          "name": "",
          "type": "address"
        }
      ],
      "name": "voters",
      "outputs": [
        {
          "internalType": "bool",
          "name": "",
          "type": "bool"
        }
      ],
      "stateMutability": "view",
      "type": "function"
    },
    {
      "inputs": [],
      "name": "votingEnd",
      "outputs": [
        {
          "internalType": "uint256",
          "name": "",
          "type": "uint256"
        }
      ],
      "stateMutability": "view",
      "type": "function"
    },
    {
      "inputs": [],
      "name": "votingStart",
      "outputs": [
        {
          "internalType": "uint256",
          "name": "",
          "type": "uint256"
        }
      ],
      "stateMutability": "view",
      "type": "function"
    }
  ],
  "bytecode": "0x60806040523480156200001157600080fd5b506040516200173a3803806200173a833981810160405281019062000037919062000523565b60005b8351811015620000e357600060405180604001604052808684815181106200006757620000666200059e565b5b60200260200101518152602001600081525090806001815401808255809150506001900390600052602060002090600202016000909190919091506000820151816000019080519060200190620000c09291906200019f565b506020820151816001015550508080620000da90620005fc565b9150506200003a565b5033600160006101000a81548173ffffffffffffffffffffffffffffffffffffffff021916908373ffffffffffffffffffffffffffffffffffffffff160217905550428110156200016b576040517f08c379a00000000000000000000000000000000000000000000000000000000081526004016200016290620006d1565b60405180910390fd5b80600381905550603c82620001819190620006f3565b60035462000190919062000754565b60048190555050505062000816565b828054620001ad90620007e0565b90600052602060002090601f016020900481019282620001d157600085556200021d565b82601f10620001ec57805160ff19168380011785556200021d565b828001600101855582156200021d579182015b828111156200021c578251825591602001919060010190620001ff565b5b5090506200022c919062000230565b5090565b5b808211156200024b57600081600090555060010162000231565b5090565b6000604051905090565b600080fd5b600080fd5b600080fd5b6000601f19601f8301169050919050565b7f4e487b7100000000000000000000000000000000000000000000000000000000600052604160045260246000fd5b620002b38262000268565b810181811067ffffffffffffffff82111715620002d557620002d462000279565b5b80604052505050565b6000620002ea6200024f565b9050620002f88282620002a8565b919050565b600067ffffffffffffffff8211156200031b576200031a62000279565b5b602082029050602081019050919050565b600080fd5b600080fd5b600067ffffffffffffffff82111562000354576200035362000279565b5b6200035f8262000268565b9050602081019050919050565b60005b838110156200038c5780820151818401526020810190506200036f565b838111156200039c576000848401525b50505050565b6000620003b9620003b38462000336565b620002de565b905082815260208101848484011115620003d857620003d762000331565b5b620003e58482856200036c565b509392505050565b600082601f83011262000405576200040462000263565b5b815162000417848260208601620003a2565b91505092915050565b6000620004376200043184620002fd565b620002de565b905080838252602082019050602084028301858111156200045d576200045c6200032c565b5b835b81811015620004ab57805167ffffffffffffffff81111562000486576200048562000263565b5b808601620004958982620003ed565b855260208501945050506020810190506200045f565b5050509392505050565b600082601f830112620004cd57620004cc62000263565b5b8151620004df84826020860162000420565b91505092915050565b6000819050919050565b620004fd81620004e8565b81146200050957600080fd5b50565b6000815190506200051d81620004f2565b92915050565b6000806000606084860312156200053f576200053e62000259565b5b600084015167ffffffffffffffff81111562000560576200055f6200025e565b5b6200056e86828701620004b5565b935050602062000581868287016200050c565b925050604062000594868287016200050c565b9150509250925092565b7f4e487b7100000000000000000000000000000000000000000000000000000000600052603260045260246000fd5b7f4e487b7100000000000000000000000000000000000000000000000000000000600052601160045260246000fd5b60006200060982620004e8565b91507fffffffffffffffffffffffffffffffffffffffffffffffffffffffffffffffff8214156200063f576200063e620005cd565b5b600182019050919050565b600082825260208201905092915050565b7f437573746f6d2073746172742074696d65206d75737420626520696e2074686560008201527f206675747572652e000000000000000000000000000000000000000000000000602082015250565b6000620006b96028836200064a565b9150620006c6826200065b565b604082019050919050565b60006020820190508181036000830152620006ec81620006aa565b9050919050565b60006200070082620004e8565b91506200070d83620004e8565b9250817fffffffffffffffffffffffffffffffffffffffffffffffffffffffffffffffff0483118215151615620007495762000748620005cd565b5b828202905092915050565b60006200076182620004e8565b91506200076e83620004e8565b9250827fffffffffffffffffffffffffffffffffffffffffffffffffffffffffffffffff03821115620007a657620007a5620005cd565b5b828201905092915050565b7f4e487b7100000000000000000000000000000000000000000000000000000000600052602260045260246000fd5b60006002820490506001821680620007f957607f821691505b6020821081141562000810576200080f620007b1565b5b50919050565b610f1480620008266000396000f3fe608060405234801561001057600080fd5b50600436106100935760003560e01c80634d6bda5f116100665780634d6bda5f1461011f578063581c281c1461013d57806385a386351461015b578063a3ec138d14610179578063efb98bcf146101a957610093565b80630121b93f14610098578063101158af146100b45780633477ee2e146100d2578063462e91ec14610103575b600080fd5b6100b260048036038101906100ad9190610729565b6101c7565b005b6100bc610331565b6040516100c99190610765565b60405180910390f35b6100ec60048036038101906100e79190610729565b610337565b6040516100fa929190610819565b60405180910390f35b61011d6004803603810190610118919061097e565b6103f3565b005b6101276104ba565b6040516101349190610b1f565b60405180910390f35b6101456105b5565b6040516101529190610b5c565b60405180910390f35b6101636105cf565b6040516101709190610765565b60405180910390f35b610193600480360381019061018e9190610bd5565b6105d5565b6040516101a09190610b5c565b60405180910390f35b6101b16105f5565b6040516101be9190610c1b565b60405180910390f35b600260003373ffffffffffffffffffffffffffffffffffffffff1673ffffffffffffffffffffffffffffffffffffffff16815260200190815260200160002060009054906101000a900460ff1615610254576040517f08c379a000000000000000000000000000000000000000000000000000000000815260040161024b90610c82565b60405180910390fd5b600080549050811061029b576040517f08c379a000000000000000000000000000000000000000000000000000000000815260040161029290610cee565b60405180910390fd5b600081815481106102af576102ae610d0e565b5b906000526020600020906002020160010160008154809291906102d190610d6c565b91905055506001600260003373ffffffffffffffffffffffffffffffffffffffff1673ffffffffffffffffffffffffffffffffffffffff16815260200190815260200160002060006101000a81548160ff02191690831515021790555050565b60035481565b6000818154811061034757600080fd5b906000526020600020906002020160009150905080600001805461036a90610de4565b80601f016020809104026020016040519081016040528092919081815260200182805461039690610de4565b80156103e35780601f106103b8576101008083540402835291602001916103e3565b820191906000526020600020905b8154815290600101906020018083116103c657829003601f168201915b5050505050908060010154905082565b600160009054906101000a900473ffffffffffffffffffffffffffffffffffffffff1673ffffffffffffffffffffffffffffffffffffffff163373ffffffffffffffffffffffffffffffffffffffff161461044d57600080fd5b600060405180604001604052808381526020016000815250908060018154018082558091505060019003906000526020600020906002020160009091909190915060008201518160000190805190602001906104aa92919061063c565b5060208201518160010155505050565b60606000805480602002602001604051908101604052809291908181526020016000905b828210156105ac578382906000526020600020906002020160405180604001604052908160008201805461051190610de4565b80601f016020809104026020016040519081016040528092919081815260200182805461053d90610de4565b801561058a5780601f1061055f5761010080835404028352916020019161058a565b820191906000526020600020905b81548152906001019060200180831161056d57829003601f168201915b50505050508152602001600182015481525050815260200190600101906104de565b50505050905090565b600060035442101580156105ca575060045442105b905090565b60045481565b60026020528060005260406000206000915054906101000a900460ff1681565b600060035442101561060a5760009050610639565b600454421061061c5760019050610639565b60014260045461062c9190610e16565b6106369190610e4a565b90505b90565b82805461064890610de4565b90600052602060002090601f01602090048101928261066a57600085556106b1565b82601f1061068357805160ff19168380011785556106b1565b828001600101855582156106b1579182015b828111156106b0578251825591602001919060010190610695565b5b5090506106be91906106c2565b5090565b5b808211156106db5760008160009055506001016106c3565b5090565b6000604051905090565b600080fd5b600080fd5b6000819050919050565b610706816106f3565b811461071157600080fd5b50565b600081359050610723816106fd565b92915050565b60006020828403121561073f5761073e6106e9565b5b600061074d84828501610714565b91505092915050565b61075f816106f3565b82525050565b600060208201905061077a6000830184610756565b92915050565b600081519050919050565b600082825260208201905092915050565b60005b838110156107ba57808201518184015260208101905061079f565b838111156107c9576000848401525b50505050565b6000601f19601f8301169050919050565b60006107eb82610780565b6107f5818561078b565b935061080581856020860161079c565b61080e816107cf565b840191505092915050565b6000604082019050818103600083015261083381856107e0565b90506108426020830184610756565b9392505050565b600080fd5b600080fd5b7f4e487b7100000000000000000000000000000000000000000000000000000000600052604160045260246000fd5b61088b826107cf565b810181811067ffffffffffffffff821117156108aa576108a9610853565b5b80604052505050565b60006108bd6106df565b90506108c98282610882565b919050565b600067ffffffffffffffff8211156108e9576108e8610853565b5b6108f2826107cf565b9050602081019050919050565b82818337600083830152505050565b600061092161091c846108ce565b6108b3565b90508281526020810184848401111561093d5761093c61084e565b5b6109488482856108ff565b509392505050565b600082601f83011261096557610964610849565b5b813561097584826020860161090e565b91505092915050565b600060208284031215610994576109936106e9565b5b600082013567ffffffffffffffff8111156109b2576109b16106ee565b5b6109be84828501610950565b91505092915050565b600081519050919050565b600082825260208201905092915050565b6000819050602082019050919050565b600082825260208201905092915050565b6000610a0f82610780565b610a1981856109f3565b9350610a2981856020860161079c565b610a32816107cf565b840191505092915050565b610a46816106f3565b82525050565b60006040830160008301518482036000860152610a698282610a04565b9150506020830151610a7e6020860182610a3d565b508091505092915050565b6000610a958383610a4c565b905092915050565b6000602082019050919050565b6000610ab5826109c7565b610abf81856109d2565b935083602082028501610ad1856109e3565b8060005b85811015610b0d5784840389528151610aee8582610a89565b9450610af983610a9d565b925060208a01995050600181019050610ad5565b50829750879550505050505092915050565b60006020820190508181036000830152610b398184610aaa565b905092915050565b60008115159050919050565b610b5681610b41565b82525050565b6000602082019050610b716000830184610b4d565b92915050565b600073ffffffffffffffffffffffffffffffffffffffff82169050919050565b6000610ba282610b77565b9050919050565b610bb281610b97565b8114610bbd57600080fd5b50565b600081359050610bcf81610ba9565b92915050565b600060208284031215610beb57610bea6106e9565b5b6000610bf984828501610bc0565b91505092915050565b6000819050919050565b610c1581610c02565b82525050565b6000602082019050610c306000830184610c0c565b92915050565b7f596f75206861766520616c726561647920766f7465642e000000000000000000600082015250565b6000610c6c60178361078b565b9150610c7782610c36565b602082019050919050565b60006020820190508181036000830152610c9b81610c5f565b9050919050565b7f496e76616c69642063616e64696461746520696e6465782e0000000000000000600082015250565b6000610cd860188361078b565b9150610ce382610ca2565b602082019050919050565b60006020820190508181036000830152610d0781610ccb565b9050919050565b7f4e487b7100000000000000000000000000000000000000000000000000000000600052603260045260246000fd5b7f4e487b7100000000000000000000000000000000000000000000000000000000600052601160045260246000fd5b6000610d77826106f3565b91507fffffffffffffffffffffffffffffffffffffffffffffffffffffffffffffffff821415610daa57610da9610d3d565b5b600182019050919050565b7f4e487b7100000000000000000000000000000000000000000000000000000000600052602260045260246000fd5b60006002820490506001821680610dfc57607f821691505b60208210811415610e1057610e0f610db5565b5b50919050565b6000610e21826106f3565b9150610e2c836106f3565b925082821015610e3f57610e3e610d3d565b5b828203905092915050565b6000610e5582610c02565b9150610e6083610c02565b9250817f7fffffffffffffffffffffffffffffffffffffffffffffffffffffffffffffff03831360008312151615610e9b57610e9a610d3d565b5b817f8000000000000000000000000000000000000000000000000000000000000000038312600083121615610ed357610ed2610d3d565b5b82820190509291505056fea2646970667358221220163b3368b283fbbdb057b63fea291ea0d9fbd7bcdef2bea0386eae724238f28464736f6c634300080b0033",
  "linkReferences": {},
  "deployedLinkReferences": {}
}